:100000000AC01CC01BC01AC019C018C017C016C037
:10001000AFC014C013C011271FBFCFE5D0E0DEBFB3
:10002000CDBF1BBF50E048ED0FB7F894A8954CBF6B
:1000300051B7577F51BF0FBF27D09BC0E1CFCF93A0
:10004000DF930F93CDB7DEB7CF5FDF4F8883C1500B
:10005000D040482F58E283FF58E04770452B58EDB9
:100060000FB7F894A8955CBF41BF0FBF41B7486474
:1000700041BF4AB741604ABF88954AB74E7F4ABFE1
:100080000F91DF91CF91089541E058ED0FB7F894AB
:100090005CBF46BF0FBF51B1566051B9189A4EBDF3
:1000A0005AE05DBD47BB40E84FBB45B7436045BF25
:1000B00078944DC044B5485F44BDCF5FC03230F442
:1000C00080E0BDDFCF31B0F34FEFF6CF4EB54F7DBF
:1000D0004EBD45B7416045BF4AB7417F44604ABF06
:1000E00087E0ADDF4AB7417F4ABF45B74E7F45BF86
:1000F0004EB540624EBDC0E006C044B5485044BD58
:10010000CF5FC03230F480E09ADFCF31B0F340E00F
:10011000F6CF4EB54F7D4EBD45B7416045BF4AB79E
:10012000417F44604ABF45B74D7F45BF45EC4DBB5D
:10013000EE99FECFC9B345B7426045BFCD3DB0F49F
:1001400044E042B986E07BDFCB50C53FD8F342E0C4
:1001500042B94AB7417F4ABF45B74E7F45BF15BD3B
:1001600014BD4EB540624EBDC0E0AACFC2E4E8CF98
:060170001895F894FFCF82
:00000001FF
