:100000000AC01CC01BC01AC019C018C017C016C037
:10001000A1C014C013C011271FBFCFE5D0E0DEBFC1
:10002000CDBF1BBF50E048ED0FB7F894A8954CBF6B
:1000300051B7577F51BF0FBF27D08DC0E1CFCF93AE
:10004000DF930F93CDB7DEB7CF5FDF4F8883C1500B
:10005000D040482F58E083FD58E24770452B58EDBB
:100060000FB7F894A8955CBF41BF0FBF41B7486474
:1000700041BF4AB741604ABF88954AB74E7F4ABFE1
:100080000F91DF91CF91089551E048ED0FB7F894AB
:100090004CBF56BF0FBF41B1466041B9189A5EBD13
:1000A0004AE04DBD40E84FBB45B7436045BF78943B
:1000B00039C04FEF44BDCF5FC03208F441C04EB5E8
:1000C0004F7D4EBD45B7416045BF4AB7417F446053
:1000D0004ABF87E0B4DF4AB7417F4ABF45B74E7F8A
:1000E00045BF4EB540624EBDC0E004C044B5485067
:1000F00044BDCF5F80E0A3DFCF31C0F314BDCF5F3D
:10010000C032C0F34EB54F7D4EBD45B7416045BFCF
:1001100044E042B94AB7417F44604ABF88E08FDF7C
:1001200087E08DDF42E042B94AB7417F4ABF45B719
:100130004E7F45BF15BD14BD4EB540624EBDC0E0FB
:1001400080E07DDFCF3108F0B4CF44B5485F44BDD7
:0A015000CF5FF6CF1895F894FFCFAB
:00000001FF
